:1000000000000320D10100001D170000E9160000C8
:10001000E9160000E9160000E9160000E9160000E4
:10002000E9160000E9160000E9160000B1560000CC
:100030001D170000E916000051570000D9160000F6
:100040001D1700001D1700001D1700001D170000E0
:100050001D1700001D1700001D1700001D170000D0
:100060001D1700001D1700001D1700001D170000C0
:100070001D1700001D1700001D1700001D170000B0
:100080001D1700001D1700001D1700001D170000A0
:100090001D1700001D1700001D1700001D17000090
:1000A0001D1700001D1700001D1700001D17000080
:1000B0001D1700001D1700001D170000CD260000B1
:1000C0001D170000C53800001D170000050A0000BC
:1000D0001D170000992C00001D1700001D170000BF
:1000E0001D1700001D1700001D1700001D17000040
:1000F0001D1700001D1700001D1700001D17000030
:10010000254000003D400000554000006D400000CB
:100110001D170000951900001D1700001D17000095
:100120001D1700001D1700001D1700001D170000FF
:100130001D1700001D1700001D1700001D170000EF
:10014000FD4000001D170000091600001D170000EB
:100150001D1700001D1700001D1700001D170000CF
:100160001D1700001D1700001D1700001D170000BF
:100170001D1700001D1700001D1700001D170000AF
:100180001D1700001D1700001D1700001D1700009F
:100190001D1700001D170000211100001D17000091
:1001A0001D1700001D1700001D1700001D1700007F
:1001B0001D1700001D1700001D1700001D1700006F
:1001C0001D1700001D1700001D1700001D1700005F
:1001D000574B4CF2205210B51A804DF628121A8057
:1001E00000BF00BF01F0A8FA524B4FF030621A6016
:1001F000514A9A60514ADA60514B4FF470021A60CA
:10020000504B514A1A60514B1A6812F4807204D153
:100210004F490A604FF4A8521A604E4B1A781107E2
:1002200003D51A7842F008021A704B4BAA221A70B2
:1002300000234A4A4A499818884204D249495958E1
:1002400099500433F5E7484A484B9A424FF000036F
:1002500002D242F8043BF7E74549464A59589950BB
:100260000433B3F5E87FF7D1434B802103F8011B3A
:1002700042498B42F9D1424B1A60424B8A221A7092
:10028000A3F5805324225A70A0221A709A799207FB
:10029000FCD59A79D406FCD43B4B9B7903F00C0334
:1002A000082BF9D1394B60221A70394B1B78802BFF
:1002B000FBD1354B01221A715D225A719A79900651
:1002C000FCD59A795106FCD5324B334A1A6000228C
:1002D0005A602D4B20221A702B4B9B7903F00C0394
:1002E0000C2BF9D12D4B2E4A1A6062B602F04CFD50
:1002F000174B1B68DA0705D52A4802F035FD2A4B53
:100300002A4A1A602A4B1B785B0609D5264C274AD5
:100310002368934204D1234802F026FD0023236082
:1003200005F03AFB01F00EFA00F046F9FEE700BFD7
:100330000E20054030800440823F04000100002B65
:1003400088ED00E0002008E00300008510D00340A5
:1003500014D0034002D0074000E007406007FF1FB1
:100360006410FF1FF86900006410FF1F007FFF1F6B
:10037000000000000002FF1F00E400E064E400E071
:1003800008ED00E0005006400040064001E0074054
:1003900003E007404480044000000602048004405B
:1003A000C010070000DD68501CE00340A5C3945A4C
:1003B00000F00740FFFFFFFFFFFFFFFFFFFFFFFF12
:1003C000FFFFFFFFFFFFFFFFFFFFFFFFFFFFFFFF3D
:1003D000FFFFFFFFFFFFFFFFFFFFFFFFFFFFFFFF2D
:1003E000FFFFFFFFFFFFFFFFFFFFFFFFFFFFFFFF1D
:1003F000FFFFFFFFFFFFFFFFFFFFFFFFFFFFFFFF0D
:10040000FFFFFFFFFFFFFFFFFFFFFFFFDEF9FFFF23
:1004100010B5054C237833B9044B13B10448AFF33E
:1004200000800123237010BD6410FF1F0000000036
:10043000F869000008B5064B1BB106480649AFF342
:1004400000800648036813B1054B03B1984708BD07
:1004500000000000F86900006810FF1F6410FF1F13
:100460000000000047F20D5358430023834202D09E
:1004700000BF0133FAE7704710B5434C01212078E3
:1004800002F024FD2078002102F000FD0120FFF79A
:10049000E9FF2078012102F0F9FC0120FFF7E2FFDB
:1004A0002078002102F0F2FC012002F06DFD20789E
:1004B000012102F0EBFC012002F066FD2078002112
:1004C00002F0E4FC012004F035FD2078012102F067
:1004D000DDFC012004F02EFD2078002102F0D6FC86
:1004E000052002F051FD2078012102F0CFFC05200B
:1004F00002F04AFD2078002102F0C8FC0520FFF739
:10050000B1FF2078012102F0C1FC0520FFF7AAFF0E
:100510002078002102F0BAFC052004F00BFD2078C1
:10052000012102F0B3FC052004F004FD2078002135
:1005300002F0ACFC1420FFF795FF2078012102F0B7
:10054000A5FC1420FFF78EFF2078002102F09EFC0E
:100550006420FFF787FF2078012102F097FC6420D8
:10056000FFF780FF2078002102F090FC4FF4FA7032
:10057000FFF778FF2078012102F088FC4FF4FA7031
:10058000FFF770FF7EE700BF6407FF1F08B501F0AB
:10059000FFFC074C074923680B225B6820469847FD
:1005A000204603F0D3FB4FF47A7004F0C3FCF0E76D
:1005B000A47CFF1FB464000007B5002401238DE86C
:1005C0001800094909487822234604F095FA0223C5
:1005D0008DE81800064907487822234604F08CFA73
:1005E00004F05EFBFEE700BFC06400007904000079
:1005F000C36400008D050000164B1A6842F4805257
:100600001A60154A00231370144A1370144A1370A9
:10061000144A1370144A1370144A40F213311160D3
:100620004FF451715160124AC0F344311170C0F35C
:10063000471100F01F0051709072937013742C23B7
:10064000D3700C4B40221A70A3F21F3308221A6099
:10065000704700BF34800440EE10FF1F8510FF1F5D
:10066000F410FF1FEF10FF1F8410FF1F08C004408D
:1006700000C0064023E400E0194A937800F003012B
:1006800003F0EC030B43410748BF43F010039370A2
:1006900000F00F03042B124903D18B7943F0400380
:1006A0008B7152790E4B02F0EF02C10648BF42F047
:1006B00010025A719A7910F0200F02F0EF021946D9
:1006C00018BF42F010028A71C205054B06D55A7850
:1006D0001978D2B241F0200119705A70704700BFEA
:1006E00000C0064008B5124B1B68DB0400D408BDEF
:1006F000104B1A7802F0FF0312B103F04FFDF7E739
:100700000D4A082111600D4A01F1804101F598213F
:10071000D37040F203120A604A60094A1370094A12
:100720001370094B1B680BB101221A7008BD00BF82
:10073000348004408410FF1F84E100E000C00640C4
:10074000EE10FF1F8510FF1F8010FF1F38B50446F5
:10075000094B1B7803F0FF05002BF9D1204601213E
:1007600002F0B4FB2046294602F090FB034B53F8FD
:100770003420034B1A6038BD8410FF1F2065000031
:10078000F010FF1F10B509B140F080000E4A137839
:10079000984217D00D4C2468E40412D503F07F036F
:1007A000082B02D10A4B00241C60002900F07F03B3
:1007B0000CBF44216021082B03D1054B41F440714B
:1007C0001960107010BD00BF6807FF1F348004401F
:1007D0000CC004407047FFFF0D4A38B5146814F48C
:1007E00080524FF0000410D03F280A4D0AD80A4A20
:1007F000012152F830302B6002F068FB2B681C702E
:10080000012038BD2C60204638BD104638BD00BFE1
:10081000348004408010FF1F206500000B4B1B68D4
:1008200013F4805310D00E28094B09D1094A40F225
:10083000023111605A7B42F001025A730120704765
:100840005A7B02F0FE025A73002070473480044045
:1008500000C0064004C00440F8B51D4B1B68DA0414
:10086000064633D51B4B1B680BB101221A701A4B7D
:100870001C780134282C1F4628BF0024174D2B78E4
:10088000A34218D100F068FF40280FDC144A137906
:100890001B06F3D52B7813490133282B28BF0023DF
:1008A000C95CDBB2C9B2D1712B70E7E7FF28E5DD87
:1008B00003F074FCE2E70B4BF6B21E550A4B012223
:1008C0001A70074BE4B2AC223C70DA70F8BD00BF7E
:1008D00034800440F010FF1FF410FF1FEF10FF1FC3
:1008E00000C006408610FF1F8410FF1F38B5044665
:1008F0004518AC4204D014F8010BFFF7ADFFF8E740
:1009000038BDFFFF08B5034B1B7813B103F046FC5D
:10091000F9E708BD8410FF1F064A074B1B781078C3
:10092000DBB2C0B283422CBF273000F1FF30C01AC7
:10093000704700BFEF10FF1FF410FF1F054B187822
:10094000054B1B78C0B2DBB2984238BF4030C01AAA
:10095000704700BFEE10FF1F8510FF1F10B5104B32
:1009600010491A780B78D2B2DBB29A4214D0013314
:10097000402B28BF00230C48DCB2C05C0C700B4934
:100980000968C0B251B19A4238BF4032D31A1A2B0B
:1009900004DC00230B7010BD4FF0FF3010BD00BF12
:1009A000EE10FF1F8510FF1FAE10FF1F8010FF1FEE
:1009B000084B1A78084B1B78DBB29A4207D00133F8
:1009C000402B28BF0023054AD05CC0B270474FF0CF
:1009D000FF307047EE10FF1F8510FF1FAE10FF1F86
:1009E000054B1A78054BD2B21A70054B1B680BB138
:1009F00000221A70704700BF8510FF1FEE10FF1F06
:100A00008010FF1F10B5294B1A79920620D5284A6D
:100A1000D879137827490133402B097828BF002360
:100A20008B42C0B203D02449C854D9B21170234AB2
:100A3000116869B1224A1278D2B2934236BFC2F12C
:100A40004002C2EB03039B18272BC4BF01230B708A
:100A5000164AD178C9B20C0616D51379180613D5E3
:100A6000184B17481C780378DBB29C4202D16C23E8
:100A7000D37009E00133282B28BF0023124CE45C1B
:100A8000DBB2E4B2D47103704B060ED5074B1A7972
:100A900012F0400F194608D00C4B00221A700C4B74
:100AA0001B6803B11A702C23CB7010BD00C0064028
:100AB000EE10FF1F8510FF1FAE10FF1F8010FF1FDD
:100AC000EF10FF1FF410FF1F8610FF1F8410FF1F81
:100AD000F010FF1F30B585B072B600F05BFE154B0D
:100AE000154970221A70154A116080221A701A78FE
:100AF0001206FCD5124B1C6800F068FE62B6114B62
:100B00009C429CBF0A235C4301AD204629460A2231
:100B100002F04FFA0023E95C0B4A29B102EB4300D3
:100B200001330A2B4180F6D101335B00137005B00D
:100B300030BD00BF00000240000007410400024039
:100B40000C0002407F969800F207FF1F70B5044624
:100B500004F0E6F82648016871B9264B264A23F0CE
:100B6000070313605160254A46F2F87582E82200B7
:100B700083E82400012303602CB1083463071CBF01
:100B800024F007040834621E46F2F6739A4229D80C
:100B9000194A13685968A14203D31848834206D101
:100BA00020E018680028F8D01A460346F2E71568D6
:100BB00018681060091B102905F108050CD91A19CD
:100BC00051605C6056680C4908684468B44201D2C0
:100BD0000146F9E710600A60094A5B681168C91AA2
:100BE000116000E0002504F033F9284670BD00BF15
:100BF000F810FF1F0C11FF1FFC10FF1F0479FF1FCF
:100C00000808FF1F38B50446B8B1A0F1080504F084
:100C100087F854F8041C094B1A685068884201D2BE
:100C20001346F9E744F8082C1D60054B1A68114477
:100C30001960BDE8384004F00BB938BDFC10FF1F47
:100C40000808FF1F444B1A6842F010022DE9F041DA
:100C50001A60424A136803F44033B3F5403F9046AC
:100C600006D03F4A3F4EB3F5803F08BF164600E02E
:100C70003D4E4FEA800CB6FBFCF292B2002A68D0DF
:100C80009100B6FBF1F1091A08D0541CA300B6FB81
:100C9000F3F3C31A8B423CBFA2B219468444052524
:100CA0000427B6FBFCF39BB2F3B103FB05F4B6FBE0
:100CB000F4F4241A8C4203D874B121462F461A4604
:100CC00001339BB203FB05F4B6FBF4F4041B8C4226
:100CD00002D90C46134600E02F460135212D8444ED
:100CE00003D021461A46DCE713467A1E02F01F02A3
:100CF000C3F30C0343EA0263072F1C4A1C4998BF45
:100D000043F400331360D8F8003043F08063C8F830
:100D1000003000230B7017490B7017490B701749EF
:100D20000B7017490B70174940F21350086040F2DE
:100D300044504860936013615360936843F43013E8
:100D40009360114B40221A70A3F24E334FF480028D
:100D50001A60BDE8F08100BF2C800440048004408C
:100D60000095BA0A40A5AE02006CDC0200400C40BF
:100D70007A79FF1F1179FF1F8079FF1F7B79FF1F91
:100D80001079FF1F20C0044056E400E01B4A93681E
:100D900000F0030123F013030B4310F0040F11467E
:100DA00018BF43F010038B6000F00F03042B134AAD
:100DB00003D1936843F08043936010F0080F0F4B0A
:100DC00003D01A6842F000521A605B68C20623F032
:100DD00080530A4A48BF43F08053536093688106AA
:100DE00023F0805348BF43F080539360C305034909
:100DF00003D50B6843F400530B60704700400C4070
:100E000008B5114B1B68DB0600D408BD0F4B1A78E0
:100E100002F0FF0312B103F0C1F9F7E70C4A4FF4F7
:100E2000800111600B4A0C49936040F203120A6082
:100E30004A600A4A13700A4A13700A4B1B680BB1C6
:100E400001221A7008BD00BF2C8004401079FF1FDA
:100E500088E100E000400C4020C004407A79FF1F88
:100E60001179FF1F0C79FF1F38B50446094B1B7819
:100E700003F0FF05002BF9D12046012102F026F8EE
:100E80002046294602F002F8034B53F83420034B66
:100E90001A6038BD1079FF1F206500007C79FF1FA4
:100EA00010B509B140F080000E4A1378984217D06F
:100EB0000D4C2468E40412D503F07F03302B02D1DB
:100EC0000A4B00241C60002900F07F030CBF442162
:100ED0006021302B03D1054B41F440711960107033
:100EE00010BD00BF0C08FF1F3480044024C0044024
:100EF0007047FFFF0D4A38B5146814F010024FF028
:100F0000000410D03F280A4D0AD80A4A012152F89D
:100F100030302B6001F0DAFF2B681C70012038BDE7
:100F20002C60204638BD104638BD00BF2C800440E0
:100F30000C79FF1F206500000B4B1B6813F010039A
:100F400010D03828094B09D1094A40F2023111600A
:100F50005A7B42F001025A73012070475A7B02F01B
:100F6000FE025A73002070472C80044000B00E40EF
:100F700028D00440F8B51C4B1B68DA06064632D56B
:100F80001A4B1B680BB101221A70194B1C780134E3
:100F9000282C1F4628BF0024164D2B78A34218D1B9
:100FA00000F0DAFB40280FDC134A53681B02F3D52C
:100FB0002B7812490133282B28BF0023C95CDBB2F0
:100FC000C9B2D1602B70E7E7FF28E5DD03F0E6F852
:100FD000E2E70A4B0A4AF6B21E5501231370094A8A
:100FE000E4B23C701360F8BD2C8004407C79FF1F94
:100FF0008079FF1F7B79FF1F00400C401279FF1F93
:101000001079FF1F5C01884338B504464518AC428F
:1010100004D014F8010BFFF7ADFFF8E738BDFFFF70
:1010200008B5034B1B7813B103F0B8F8F9E708BD16
:101030001079FF1F064A074B1B781078DBB2C0B24D
:1010400083422CBF273000F1FF30C01A704700BF29
:101050007B79FF1F8079FF1F054B1878054B1B78A4
:10106000C0B2DBB2984238BF4030C01A704700BFF0
:101070007A79FF1F1179FF1F10B5104B10491A78AC
:101080000B78D2B2DBB29A4214D00133402B28BF86
:1010900000230C48DCB2C05C0C700B490968C0B27C
:1010A00051B19A4238BF4032D31A1A2B04DC0023C4
:1010B0000B7010BD4FF0FF3010BD00BF7A79FF1FDD
:1010C0001179FF1F3A79FF1F0C79FF1F084B1A781F
:1010D000084B1B78DBB29A4207D00133402B28BF64
:1010E0000023054AD05CC0B270474FF0FF30704714
:1010F0007A79FF1F1179FF1F3A79FF1F054B1A7884
:10110000054BD2B21A70054B1B680BB100221A7046
:10111000704700BF1179FF1F7A79FF1F0C79FF1FFD
:1011200010B52A4B5A68920220D5294AD8681378FC
:1011300028490133402B097828BF00238B4204D073
:101140002549C0B2C854D9B21170244A116869B196
:10115000234A1278D2B2934236BFC2F14002C2EBA8
:1011600003039B18272BC4BF01230B70174A9168F8
:101170000C021AD55368180217D51A4B18481C7858
:101180000378DBB29C4206D1174B00221A60012281
:1011900043F8042C09E00133282B28BF0023134C0B
:1011A000E45CDBB2E4B2D46003704A020CD5074BB6
:1011B0005B685B0208D50E4A002313700D4A126863
:1011C00002B113700C4A136010BD00BF00400C4008
:1011D0007A79FF1F1179FF1F3A79FF1F0C79FF1FE2
:1011E0007B79FF1F8079FF1F5C0188431279FF1F05
:1011F0001079FF1F7C79FF1F58018843164B1A682E
:1012000042F480621A60154A00231370144A137066
:10121000144A1370144A1370144A1370144A40F29B
:10122000133111604FF4517142F8041C114AC0F39C
:1012300044311170C0F3471100F01F0051709072DB
:10124000937013742C23D3700B4B40221A70A3F2AB
:101250003A3304221A60704728800440F279FF1F55
:101260008979FF1FF879FF1FF379FF1F8879FF1F26
:1012700064D0044000A00E4042E400E0194A937894
:1012800000F0030103F0EC030B43410748BF43F0B8
:101290001003937000F00F03042B124903D18B79D4
:1012A00043F040038B7152790E4B02F0EF02C106FE
:1012B00048BF42F010025A719A7910F0200F02F0E4
:1012C000EF02194618BF42F010028A71C205054BA1
:1012D00006D55A781978D2B241F0200119705A70A7
:1012E000704700BF00A00E4008B5114B1B685B059E
:1012F00000D408BD0F4B1A7802F0FF0312B102F0C0
:101300004DFFF7E70C4A042111600C4A0C49D370D9
:1013100040F203120A6041F8042C0A4A13700A4A88
:1013200013700A4B1B680BB101221A7008BD00BF75
:10133000288004408879FF1F88E100E000A00E406B
:1013400064D00440F279FF1F8979FF1F8479FF1F61
:1013500038B50446094B1B7803F0FF05002BF9D183
:101360002046012101F0B2FD2046294601F08EFD04
:10137000034B53F83420034B1A6038BD8879FF1FA4
:1013800020650000F479FF1F10B509B140F080001E
:101390000E4A1378984217D00D4C2468E40412D5F5
:1013A00003F07F03212B02D10A4B00241C6000298B
:1013B00000F07F030CBF44216021212B03D1054B9A
:1013C00041F440711960107010BD00BF0D08FF1F7F
:1013D0003480044060D004407047FFFF0D4A38B5A8
:1013E000146814F480624FF0000410D03F280A4DB6
:1013F0000AD80A4A012152F830302B6001F066FD0C
:101400002B681C70012038BD2C60204638BD10466A
:1014100038BD00BF288004408479FF1F206500008C
:101420000B4B1B6813F4806310D01828094B09D1AB
:10143000094A40F2023111605A7B42F001025A73AC
:10144000012070475A7B02F0FE025A730020704759
:101450002880044000A00E4068D00440F8B51D4B21
:101460001B685A05064633D51B4B1B680BB101227E
:101470001A701A4B1C780134282C1F4628BF0024F0
:10148000174D2B78A34218D100F066F940280FDCE5
:10149000144A13791B06F3D52B7813490133282BF3
:1014A00028BF0023C95CDBB2C9B2D1712B70E7E75A
:1014B000FF28E5DD02F072FEE2E70B4BF6B21E55A7
:1014C0000A4B01221A70074BE4B2AC223C70DA706E
:1014D000F8BD00BF28800440F479FF1FF879FF1F92
:1014E000F379FF1F00A00E408A79FF1F8879FF1F44
:1014F00038B504464518AC4204D014F8010BFFF788
:10150000ADFFF8E738BDFFFF08B5034B1B7813B1FB
:1015100002F044FEF9E708BD8879FF1F064A074B31
:101520001B781078DBB2C0B283422CBF273000F1A9
:10153000FF30C01A704700BFF379FF1FF879FF1F13
:10154000054B1878054B1B78C0B2DBB2984238BF08
:101550004030C01A704700BFF279FF1F8979FF1F22
:1015600010B5104B10491A780B78D2B2DBB29A4200
:1015700014D00133402B28BF00230C48DCB2C05CE0
:101580000C700B490968C0B251B19A4238BF403261
:10159000D31A1A2B04DC00230B7010BD4FF0FF3060
:1015A00010BD00BFF279FF1F8979FF1FB279FF1FBD
:1015B0008479FF1F084B1A78084B1B78DBB29A42DC
:1015C00007D00133402B28BF0023054AD05CC0B2AE
:1015D00070474FF0FF307047F279FF1F8979FF1F86
:1015E000B279FF1F054B1A78054BD2B21A70054B22
:1015F0001B680BB100221A70704700BF8979FF1F6A
:10160000F279FF1F8479FF1F10B5294B1A799206D2
:1016100020D5284AD879137827490133402B0978F7
:1016200028BF00238B42C0B203D02449C854D9B28A
:101630001170234A116869B1224A1278D2B29342DA
:1016400036BFC2F14002C2EB03039B18272BC4BF75
:1016500001230B70164AD178C9B20C0616D513793E
:10166000180613D5184B17481C780378DBB29C4238
:1016700002D16C23D37009E00133282B28BF00234B
:10168000124CE45CDBB2E4B2D47103704B060ED5AD
:10169000074B1A7912F0400F194608D00C4B002264
:1016A0001A700C4B1B6803B11A702C23CB7010BD41
:1016B00000A00E40F279FF1F8979FF1FB279FF1F4A
:1016C0008479FF1FF379FF1FF879FF1F8A79FF1FC5
:1016D0008879FF1FF479FF1F024B1A6801321A60E4
:1016E00004F06EB8EC7BFF1F08B50B4C2368580361
:1016F00001D500F04FF92368590501D500F0E6FF48
:1017000023681A0501D502F0DDF82368DB04ECD567
:10171000FFF778F9E9E700BF3480044008B5FFF728
:10172000E3FF08B54FF0500383F31188BFF36F8FC9
:10173000BFF34F8FFFF7D8FF014B10221A8070477D
:10174000002005407047FFFF024A136818441060EC
:10175000184670471008FF1FEFF313839BB9EFF390
:10176000108098B9EFF3058323B10F2B04D9084AF1
:10177000985C01E04FF48070EFF311833BB183423A
:1017800038BF184670474FF0FF3070471846704713
:10179000F0E300E00A4B1A78802A0CD1094A0A4982
:1017A000116002F5573202F2BD32002111701A7831
:1017B000802AFCD001E0002070470120704700BF64
:1017C00003E007404480044000002822094B1A78B7
:1017D000012A0DD102F1804202F5FC226021117034
:1017E0001A78802AFCD1044B044A1A600120704701
:1017F0000020704703E007404480044000000602D8
:10180000F0B50C4B0C4C1A7842F0020504EBC506FF
:1018100082F00102706009481A700678002E0CBF31
:101820008827C82786F0010647EA0141067044F878
:101830003510F0BD647AFF1F0000FF1FDC7AFF1F28
:10184000431E032B10B510D872B6094A52F8230074
:1018500048B1416842F82310064A018832F8134023
:10186000611A22F8131062B610BD002010BD00BF2F
:10187000547AFF1FA87EFF1F013803280AD872B6CA
:10188000054B53F82030002013B101305B68FBE7B3
:1018900062B6704700207047A87AFF1F10B572B675
:1018A0000123174A1A4412F8012C12071CD599007B
:1018B000144A52F831402CB902EB431308305860F7
:1018C000114B09E041F0010152F8314064B902EBDB
:1018D000C103083058600D4B42F831300C4B1A7878
:1018E000013A1A7062B610BD0133052BD9D162B628
:1018F000074B00221A70BDE8104001F0C7BC00BFC2
:10190000C66400000000FF1F88004000C8004000BF
:10191000D27AFF1F431E032B30B532D8194A40013B
:1019200040F01000104472B6174CE25C032A09D84C
:10193000DFE802F0160218050830022213E0083032
:10194000042210E01148124A50F8234014B940F81C
:10195000231002E052F82300416042F823100FE008
:10196000032200E00522E25410F0080F01F1080301
:101970000A8843600CBF8823C82343EA02430360FC
:1019800062B630BD0000FF1F107AFF1FA87AFF1F4C
:10199000B87AFF1F2DE9F84FAB4F3C78E4B214F052
:1019A000040F3D4619D0A94B1B78A3B1A84A117862
:1019B00001F0FF0321B1013BDBB2137003B900BE9C
:1019C000A44A117801F0FF0329B1013BDBB2137087
:1019D0000BB901F019FC04233B7004F0080303F079
:1019E000FF02002B00F067829B4B9C4C1A78D2B20E
:1019F00015094FEA920840F0E48104EBC8035968E6
:101A000054F83830C3F38303013B0C2B00F2D6812A
:101A1000DFE813F095019501D401D401D401D4017C
:101A2000D401D401B001D401D401D4010D008C4DF6
:101A30000A684B688B486B6001218B4B44F8383047
:101A40002A60DFF85082017092B240F28160002378
:101A50008242C8F800302361A36117D8B2F5D06F75
:101A600080F01E81B2F5817F00F0CF8006D8802AF9
:101A700000F0BA80822A00F0BB8031E140F20233EC
:101A80009A4200F0D180B2F5A06F1CE042F2210032
:101A9000824200F051810ED8B2F5086F00F09E80AE
:101AA000B2F5106F40F01C81684B6C4EAA781A702A
:101AB00006F180090AE042F221218A4200F0088101
:101AC00042F221339A4200F00F8109E1336A1B068A
:101AD00003D5706A083801F0D9FB08364E45F5D1B8
:101AE0000026B146DFF8B0A156F80A0028B1D0F8B8
:101AF00004B001F0CBFB5846F8E74AF806005B4B10
:101B0000DFF898A1F05056F80A0028B1D0F804B0D8
:101B100001F0BCFB5846F8E7554B4AF80600F05078
:101B2000544B23F81900544B19F80320023A032AA6
:101B300008D8DFE802F002040204002200E00122DB
:101B400003F8092009F10109B9F1040F06F10406AF
:101B5000C8D14A4B00221A7001269A46484A494B7E
:101B60003244334412F8012C9B0012F0080F1A7013
:101B70004FEA860925D001F06BFB38B104EB461320
:101B800008305860404B44F8393006E09AF800308D
:101B900044F8390001338AF8003001F059FB49F06C
:101BA000010338B104EBC302083050602E4A44F8F8
:101BB000332006E044F833009AF8003001338AF805
:101BC000003049F00202013649F003090023052ED6
:101BD00044F8323044F83930C0D186E01B4B2B4CEE
:101BE0001B7823700B4683E0284C237063707EE0E3
:101BF000AA88042A74D8254C920023706370244B61
:101C00009B5C9E0773D5217071E0AA8802F07F0269
:101C1000042A65DC6B88002B62D191001C4A0A44BF
:101C2000117821F0020159E0AA8802F07F02042A0B
:101C300056DC6B88002B53D19100154A0A44117869
:101C400041F002014AE000BF80200740DB7AFF1F1D
:101C5000657AFF1FF07BFF1F902007400000FF1FE9
:101C6000C87AFF1FDC7AFF1FC8004000007AFF1F00
:101C7000B87AFF1FA87EFF1F107AFF1FD27AFF1FBE
:101C8000C664000030C8011088004000D37AFF1FEE
:101C9000C0200740FC79FF1F547AFF1FA87AFF1F5E
:101CA0006A88A9889F4B53F8084CA3F10C00BCB17B
:101CB00033F80C6C964209D133F80A6C8E4205D188
:101CC000120A032A0CBF2378038911E00C33EAE7D8
:101CD000954A1168954A1160A978954A117004E0F7
:101CE000944B0F221A7027E000231C4600E00223C9
:101CF000EE88B34238BF1E46402E34BF35464025DD
:101D000020462946FFF77CFD761B2C4403D1402D4D
:101D100012D1354603E0402E34BF354640252046DB
:101D20002946FFF76DFD761B2C4401D1402D03D1D0
:101D3000814AC8F8004016800122804B3DE0804B6C
:101D40001A8842F221039A4210D100237D4AC85CCE
:101D500098540133072BF9D11368862B02D17A4BA3
:101D60000F221A7000200146FFF74AFD774B44F816
:101D7000383023E0764E3568B5B1DFF8BC81B8F86D
:101D80000090B9F1400F34BF4C464024284621460C
:101D9000FFF736FDC4EB09039BB2A8F800300BB97E
:101DA000402C00D12B193360654B1A88B2F5A06F17
:101DB00004D100225A709A78664B1A7001225F4B48
:101DC0006CE004EBC806013D736802F00802A3F161
:101DD0000800EDB202F0FF01002A36D001F056FAF9
:101DE0005D485E4B50F82520EAB1516840F8251057
:101DF00002F108017160595D03290BD8DFE801F099
:101E000002040608032104E0022102E0052100E0AB
:101E10000421595516F0080F12880CBF8823C823D7
:101E200043EA024342E05A5D032A07D8DFE802F0A2
:101E300040400204002206E0012204E016F0080FF0
:101E40000CBF022203225A5532E054F83820120CFB
:101E500023F8082C22B3DFF834E123F8061C43F8FA
:101E6000041C5EF825303E4913B94EF8250002E007
:101E700051F8253058603B4B41F8250033F81510D8
:101E80000A4423F8152001F0E3F910B1083070601E
:101E900006E0354B44F838001A7801321A7007E032
:101EA0002A4B324A16F0080F08BF134644F8383060
:101EB00008233B7070E5E0071FD520492B482C4CC8
:101EC00002230B702B4B1A702B4B186098602B4819
:101ED000D8601A619A615C60164B0D201870284812
:101EE000FF2303702B700274264A1370264B9F2227
:101EF0001A7001230B70BDE8F88F210604D50D4B35
:101F00000D221A7080232B70A20705D51C4B1A785E
:101F1000D2B21A7002232B70E30644BF10232B7039
:101F2000BDE8F88FD8640000EC7BFF1FB87EFF1F70
:101F3000007CFF1FC0200740D07AFF1F942007407D
:101F4000C87AFF1FB07EFF1F657AFF1FC8004000E0
:101F5000FC79FF1F98200740A87AFF1F107AFF1F07
:101F6000007AFF1FA87EFF1FD27AFF1F8800400063
:101F7000147AFF1F647AFF1F0000FF1F687AFF1F9B
:101F8000882007408C20074084200740547AFF1F98
:101F900008B5FEF79FFD0022204B0021D150981874
:101FA0000832882A4160F7D11D4A106840F4802029
:101FB00010601C4A106840F04070106002F5C922A1
:101FC00002F5A27203201070A02002F8040CC3F3E3
:101FD000072002F8A80CC3F307401B0E02F8940C6C
:101FE00002F8903CFF2302F8C43C02F8BC3CA83A3B
:101FF00002F88C3C012302F8083C82F8641002F8D5
:10200000183C094B70226FF44C711A700B444FF45A
:1020100000121A60054B10221A7008BD0000FF1F45
:102020003480044000D8004035E400E00821074037
:1020300010B5204B2048214960221A70E1225A70C5
:102040001F4B204A1C78204B082C01D1212402E090
:102050000A2C03D139240460132005E00C2C0CBF9A
:1020600035245D2404601220086014601860174B4A
:1020700017491B78174A03B101230B601360164BF5
:10208000164A1978164B012901D880210BE0042942
:1020900001D8842107E0082901D8852103E010290F
:1020A00094BF86218721116019600E4B01221A709E
:1020B00010BD00BF0040074008B003400CB0034013
:1020C0001408FF1F08B00B400CB00B40DE7AFF1F56
:1020D00020B0034020B00B401508FF1F24B0034080
:1020E00024B00B40DD7AFF1F294B1A6842F480624E
:1020F0001A60284A00231370274A1370274A137066
:10210000274A1370274A1370274B1B78152B06D0CC
:102110001B2B08D05BB940F21332244B06E040F28F
:102120001332234B02E0234B40F213321A60224B4E
:102130001B78052B07D01A2B09D0012B0BD14FF49C
:1021400051721E4B06E04FF451721D4B02E01D4BC5
:102150004FF451721A601C4BC0F344321A70C0F332
:1021600047125A7000F01F000422022198729A70E0
:10217000D9745A7588221A743C22DA70134B4022A3
:102180001A70A3F21F334FF000421A60704700BF6D
:1021900034800440677BFF1FE57AFF1F707BFF1FC1
:1021A000687BFF1FE47AFF1F267BFF1F40A00440CF
:1021B00018C004403C9004401608FF1F44A004408F
:1021C0001CC004403890044000A006401FE400E01A
:1021D000194A937800F0030103F0EC030B43410725
:1021E00048BF43F01003937000F00F03042B124913
:1021F00003D18B7943F040038B7152790E4B02F07F
:10220000EF02C10648BF42F010025A719A7910F0ED
:10221000200F02F0EF02194618BF42F010028A7137
:10222000C205054B06D55A781978D2B241F0200183
:1022300019705A70704700BF00A0064008B5114BD6
:102240001B685B0500D408BD0F4B1A7802F0FF0332
:1022500012B101F0A3FFF7E70C4A4FF00041116003
:102260000B4A0C49D37040F203120A604A600A4AD2
:1022700013700A4A13700A4B1B680BB101221A70C3
:1022800008BD00BF34800440E47AFF1F80E100E015
:1022900000A0064040A00440677BFF1FE57AFF1FB7
:1022A000E07AFF1F38B50446094B1B7803F0FF05A1
:1022B000002BF9D12046012100F008FE20462946D6
:1022C00000F0E4FD034B53F83420034B1A6038BD93
:1022D000E47AFF1F206500006C7BFF1F10B509B179
:1022E00040F08000194A1378984214462DD0184ABD
:1022F0001268520528D503F07F03052B06D01A2B50
:1023000007D0012B08D10022124B04E00022124B0F
:1023100001E0124B00221A60002900F07F020CBF7E
:1023200044236023052A07D01A2A09D0012A0BD199
:1023300043F44073074A06E043F44073064A02E060
:10234000064A43F440731360207010BD1608FF1F47
:102350003480044044A004401CC004403890044031
:10236000144A1378984223D01349096849051ED5A9
:10237000152B05D01B2B06D043B910490B6005E087
:1023800000210F4B01E00F4B00211960152806D0EA
:102390001B2808D058B940F21331084B06E040F230
:1023A0001331074B02E0074B40F2133119601070F4
:1023B000704700BF267BFF1F3480044040A00440CC
:1023C00018C004403C9004400D4A38B5146814F419
:1023D00080624FF0000410D03F280A4D0AD80A4A04
:1023E000012152F830302B6000F070FD2B681C701A
:1023F000012038BD2C60204638BD104638BD00BFD6
:1024000034800440E07AFF1F206500000E4B1B68FB
:1024100013F4806316D012280C4B03D140F2023122
:102420000B4A04E0142809D10A4A40F20231116033
:102430005A7B42F001025A73012070475A7B02F026
:10244000FE025A73002070473480044000A006400A
:102450000CA0044014C00440F8B51D4B1B685A057D
:10246000064633D51B4B1B680BB101221A701A4B61
:102470001C780134402C1F4628BF0024174D2B78B0
:10248000A34218D1FFF768F940280FDC144A1379EA
:102490001B06F3D52B7813490133402B28BF0023AB
:1024A000C95CDBB2C9B2D1712B70E7E7FF28E5DD6B
:1024B00001F074FEE2E70B4BF6B21E550A4B012207
:1024C0001A70074BE4B2BC223C70DA70F8BD00BF52
:1024D000348004406C7BFF1F707BFF1F687BFF1FF5
:1024E00000A00640E67AFF1FE47AFF1F274B1B6817
:1024F0005A052DE9F04707468A4644D5244B1B6808
:102500000BB101221A703D4607EB0A039D4237D2F8
:10251000DFF890801F4E98F8004096F80090013444
:10252000402C28BF00245FFA89F9A1451DD11A4B20
:10253000BC22DA70FFF710F940280FDC164A137935
:102540001B060FD5337815490133402B28BF0023D4
:10255000C95CDBB2C9B2D171337003E0FF2801DD81
:1025600001F01CFE33784B45E4D00C4B15F8012BE1
:102570001A550B4B0122E4B21A7088F80040C3E7E9
:10258000054BBC22DA70BDE8F08700BF3480044000
:102590006C7BFF1F687BFF1F00A00640E67AFF1FD1
:1025A000E47AFF1F707BFF1F08B5034B1B7813B144
:1025B00001F0F4FDF9E708BDE47AFF1F064A074B76
:1025C0001B781078DBB2C0B283422CBF3F3000F1E1
:1025D000FF30C01A704700BF687BFF1F707BFF1F72
:1025E000054B1878054B1B78C0B2DBB2984238BF58
:1025F0004030C01A704700BF677BFF1FE57AFF1F9E
:1026000010B5104B10491A780B78D2B2DBB29A424F
:1026100014D00133402B28BF00230C48DCB2C05C2F
:102620000C700B490968C0B251B19A4238BF4032B0
:10263000D31A1A2B04DC00230B7010BD4FF0FF30AF
:1026400010BD00BF677BFF1FE57AFF1F277BFF1FC1
:10265000E07AFF1F084B1A78084B1B78DBB29A42CE
:1026600007D00133402B28BF0023054AD05CC0B2FD
:1026700070474FF0FF307047677BFF1FE57AFF1F01
:10268000277BFF1F0C4B1B685B0514D50B4BDA78BF
:1026900002F0CB02DA7040225A74DA7842F0340247
:1026A000DA70074B1A78074BD2B21A70064B1B68C8
:1026B0000BB100221A7070473480044000A006401D
:1026C000E57AFF1F677BFF1FE07AFF1F30B5374BAE
:1026D0001A7912F0300F31D072B69A7D02F0FF00F5
:1026E00022B9DA7940225A7462B627E062B6304ADB
:1026F000304913780978DBB2C9B214462B4AD57930
:102700005A1C402A28BF00228A42EDB202D02A4B2E
:102710009D541346421E12F0FF00EFD1DAB2227030
:10272000264A126852B18B4236BFC1F14001C1EB5B
:1027300003035B18272BC4BF012313701B4BD978ED
:10274000C9B20C0620D51B7918061DD51C4B1D4A95
:102750001D781378EDB2DBB21046AB420CD0134AB1
:102760000133402B1479184C28BF0023E45CE4B2F9
:10277000D471127D072AF0D9DBB203700B4B1A79A2
:10278000120644BF7C22DA704B060ED5074B1A792D
:1027900012F0400F194608D00C4B00221A700C4B57
:1027A0001B6803B11A703C23CB7030BD00A00640FB
:1027B000677BFF1FE57AFF1F277BFF1FE07AFF1F64
:1027C000707BFF1F687BFF1FE67AFF1FE47AFF1F05
:1027D0006C7BFF1F214B1A6842F400521A60204A9A
:1027E000002313701F4A13701F4A13701F4A13707F
:1027F0001F4A13701F4B1B781F2B05D03F2B07D18F
:1028000040F213321C4B02E01C4B40F213321A60B0
:102810001B4B1B78202B05D03E2B07D14FF4517258
:10282000184B02E0184B4FF451721A60174BC0F36B
:1028300044321A70C0F347125A7000F01F00002291
:1028400098729A701A742C22DA70114B40226FF42D
:1028500048711A700B4420221A607047348004407B
:10286000E27BFF1F797BFF1FE87BFF1FE37BFF1FDE
:10287000787BFF1F1708FF1F14D0044028A00440D6
:102880001808FF1F10D004402CA0044000D00640C0
:1028900025E400E0194A937800F0030103F0EC030B
:1028A0000B43410748BF43F01003937000F00F0340
:1028B000042B124903D18B7943F040038B71527979
:1028C0000E4B02F0EF02C10648BF42F010025A71EF
:1028D0009A7910F0200F02F0EF02194618BF42F06B
:1028E00010028A71C205054B06D55A781978D2B202
:1028F00041F0200119705A70704700BF00D00640A7
:102900001E4B1B689B0410B500D410BD1C4B1B78DC
:1029100003F0FF0213B101F041FCF7E7194B1A4C29
:102920001A48202119601A4B1A49DA7040F2031331
:102930000B60236000781F2804D03F2803D1164B7A
:102940001A6000E00B60154B1B7803F07F03202B0F
:1029500005D03E2B06D1124B00221A6002E040F255
:10296000031323600F4A002313700F4A13700F4B99
:102970001B680BB101221A7010BD00BF34800440E7
:10298000787BFF1F84E100E02CA004401708FF1FA4
:1029900000D0064028A0044014D004401808FF1FAF
:1029A00010D00440E27BFF1F797BFF1F747BFF1F69
:1029B00038B50446094B1B7803F0FF05002BF9D10D
:1029C0002046012100F082FA2046294600F05EFAF6
:1029D000034B53F83420034B1A6038BD787BFF1F3C
:1029E00020650000E47BFF1F10B509B140F08000B6
:1029F000144A13789842144622D0134A126892045B
:102A00001DD503F07F03202B04D03E2B05D10022DF
:102A10000E4B01E00E4B00221A60002900F07F02ED
:102A20000CBF44236023202A05D03E2A07D143F45B
:102A30004073064A02E0064A43F440731360207074
:102A400010BD00BF1808FF1F3480044010D00440A0
:102A50002CA004400F4A137898421AD00E490968F6
:102A6000890415D51F2B04D03F2B05D100210B4B1A
:102A700001E00B4B002119601F2805D03F2807D12A
:102A800040F21331054B02E0054B40F2133119605F
:102A9000107070471708FF1F3480044014D00440A2
:102AA00028A004400D4A38B5146814F400524FF0C1
:102AB000000410D03F280A4D0AD80A4A012152F8D2
:102AC00030302B6000F002FA2B681C70012038BDFA
:102AD0002C60204638BD104638BD00BF348004400D
:102AE000747BFF1F2065000000207047F8B51D4B68
:102AF0001B689A04064633D51B4B1B680BB1012299
:102B00001A701A4B1C780134282C1F4628BF002449
:102B1000174D2B78A34218D1FEF71EFE40280FDC7C
:102B2000144A13791B06F3D52B7813490133282B4C
:102B300028BF0023C95CDBB2C9B2D1712B70E7E7B3
:102B4000FF28E5DD01F02AFBE2E70B4BF6B21E554C
:102B50000A4B01221A70074BE4B2AC223C70DA70C7
:102B6000F8BD00BF34800440E47BFF1FE87BFF1FFB
:102B7000E37BFF1F00D006407A7BFF1F787BFF1F9F
:102B800038B504464518AC4204D014F8010BFFF7E1
:102B9000ADFFF8E738BDFFFF08B5034B1B7813B155
:102BA00001F0FCFAF9E708BD787BFF1F064A074BE6
:102BB0001B781078DBB2C0B283422CBF273000F103
:102BC000FF30C01A704700BFE37BFF1FE87BFF1F89
:102BD000054B1878054B1B78C0B2DBB2984238BF62
:102BE0004030C01A704700BFE27BFF1F797BFF1F98
:102BF00010B5104B10491A780B78D2B2DBB29A425A
:102C000014D00133402B28BF00230C48DCB2C05C39
:102C10000C700B490968C0B251B19A4238BF4032BA
:102C2000D31A1A2B04DC00230B7010BD4FF0FF30B9
:102C300010BD00BFE27BFF1F797BFF1FA27BFF1F40
:102C4000747BFF1F084B1A78084B1B78DBB29A4243
:102C500007D00133402B28BF0023054AD05CC0B207
:102C600070474FF0FF307047E27BFF1F797BFF1FFB
:102C7000A27BFF1F054B1A78054BD2B21A70054B89
:102C80001B680BB100221A70704700BF797BFF1FD1
:102C9000E27BFF1F747BFF1F10B5294B1A79920648
:102CA00020D5284AD879137827490133402B097851
:102CB00028BF00238B42C0B203D02449C854D9B2E4
:102CC0001170234A116869B1224A1278D2B2934234
:102CD00036BFC2F14002C2EB03039B18272BC4BFCF
:102CE00001230B70164AD178C9B20C0616D5137998
:102CF000180613D5184B17481C780378DBB29C4292
:102D000002D16C23D37009E00133282B28BF0023A4
:102D1000124CE45CDBB2E4B2D47103704B060ED506
:102D2000074B1A7912F0400F194608D00C4B0022BD
:102D30001A700C4B1B6803B11A702C23CB7010BD9A
:102D400000D00640E27BFF1F797BFF1FA27BFF1FA5
:102D5000747BFF1FE37BFF1FE87BFF1F7A7BFF1F56
:102D6000787BFF1FE47BFF1F044B054900221A609C
:102D70000A60044A106010221A60704714D00340A1
:102D800004D0034000D00340354B36494FF0006279
:102D900070B51A604FF080521A604FF000521A60FE
:102DA0004FF080421A604FF000421A602E4B2F4DB8
:102DB0002F4C304E00224EF6FF701A6058602823C8
:102DC0000B608B600B618B610B628B620B638B639F
:102DD000103101F501212B6023600B608B600B61CA
:102DE0008B610B628B620921316006F580560436D7
:102DF00032607060B360336146F8041C06F5FE264D
:102E000032607060B360336146F8041C06F580568A
:102E10003260706018482B602360016017490868B1
:102E200040F40070086051F8280C40F0007041F840
:102E3000280C283901F501210A60114A47F6FF7173
:102E400011605360D3600F4B08221A60FFF7F0F84F
:102E50000D4B00BF013BFCD1BDE87040FFF798B8B7
:102E600004E100E00C800340048003400C900B4020
:102E700014900B400080034000900B402C800440D5
:102E800008900C4000900C4050E4B6003F2810B56C
:102E900018D80D4A52F8303093F880423CB10122E4
:102EA00011B183F8802010BD83F8002110BD02EB22
:102EB000C00043681A6811B142F0030201E022F039
:102EC00002021A6010BD00BF206500003F2810B547
:102ED00037D81C4A02EBC00301295B68144601D0B5
:102EE00004290FD154F83020012082F880024FF4D9
:102EF000A2721A601A6804290CBF42F0200222F064
:102F000020021DE052F83020002082F8800211B12A
:102F10008A1E012A12D84FF4807202291A6003D146
:102F20001A6842F003020BE003290AD11A6842F042
:102F300002021A601A6822F0010201E040F2031254
:102F40001A6010BD2065000072B60C4B0C491A685F
:102F50000C4B1B68096862B6490102D5322A88BF4A
:102F60000133C2F52F32B42102F21F32B2FBF1F26B
:102F70004FF47A7000FB0320704700BF18E000E0B8
:102F800004ED00E0EC7BFF1F38B50446FFF7DCFFE3
:102F9000054624B938BD013C0AD005F57A75FFF71E
:102FA000D3FF401BB0F57A7FF5D201F0F7F8F6E7D2
:102FB00038BD10B50023B0FBF2F402FB1400092861
:102FC00094BF30303730C0B2C85420460CB1013302
:102FD000F1E7CA18547022469A4206DA885CCC5C43
:102FE0008C54C8540132013BF6E7084610BDFFFF80
:102FF00010B5104C23686BB120684288531C024402
:10300000147A0288934212D300F040F9094B00224F
:103010001A600DE0084B1B7813B94FF0FF3010BD5C
:103020000320FEF70DFC20600028E5D1F5E7438082
:10303000204610BDFC7BFF1FDB7AFF1F10B50B4C39
:10304000236813B123686BB902E0094B1B7813B9ED
:103050004FF0FF3010BD0320FEF7F2FB2060002888
:10306000F0D1F5E75A881344187A10BDFC7BFF1F96
:10307000DB7AFF1F044B9888044B1B681BB11A882E
:103080005B88D31A18447047A87EFF1FFC7BFF1F84
:1030900010B5094B1B786BB1084C206818B100F0D3
:1030A000F5F8002323600320FEF7CAFB10B100F0FF
:1030B000EDF8F8E710BD00BFDB7AFF1FFC7BFF1FB8
:1030C0002DE9F8432D4E012307460C463370002CA2
:1030D0004FD02B4D2B68A9462BBBDFF8B480294B72
:1030E0001B7803F0FF020BB9327015E00420FEF7E5
:1030F000C3FB072808D80123337000F0A9F8C9F8EA
:10310000000080B91D4B1870B8F101081E4B01D0AA
:103110001A782AB101221A704FF0FF30BDE8F88307
:1031200001F03CF8DBE72968174A48880023137050
:10313000C0F14002944238BF224600F1080C10440E
:103140008C444880A41A934204D0F85C0CF8030025
:103150000133F8E71F444B883F2B06D940230B80EF
:103160000420FEF7D7FB00232B60084B05221A70C2
:10317000ADE734702046BDE8F88300BFF17BFF1F48
:10318000F47BFF1FDB7AFF1FF87BFF1FF07BFF1F25
:103190002148010007B502AB012103F8010D1846D3
:1031A000FFF78EFF03B05DF804FBFFFF2DE9F04150
:1031B000114B1B78F3B1114E114B3468114D01279F
:1031C0001F7098464CB1002763882F70042023801D
:1031D0002146FEF79FFB376009E000F039F8014611
:1031E00020B104202C70FEF795FB00E02F70002327
:1031F00088F80030BDE8F081DB7AFF1FF47BFF1F09
:10320000F17BFF1FF07BFF1F38B50E4B1B7803F0DF
:10321000FF05ABB90C4C216831B14B880B80042001
:10322000FEF778FB256038BD00F012F8014620B1AA
:103230000420BDE83840FEF76DBB044B01221A7034
:1032400038BD00BFF17BFF1FF47BFF1FF07BFF1F2A
:1032500072B60C4A1168B1FA81F30B2B02D962B62F
:10326000002070474FF00040D84021EA0001116073
:1032700062B6054948225343C8180022CA5042602A
:10328000704700BF1C08FF1F0004FF1F0C4B4822A3
:10329000C31AB3FBF2F30B2B11D80A4A127822B1EE
:1032A000094A12780AB1FEF7F9BA72B6074A4FF026
:1032B000004121FA03F311681943116062B67047A7
:1032C0000004FF1FD27AFF1FDB7AFF1F1C08FF1FBD
:1032D000294B1A6842F400621A60284A00231370CE
:1032E000274A1370274A1370274A1370274A13700E
:1032F000274B1B781A2B07D03B2B09D0092B0BD15E
:1033000040F21332234B06E040F21332224B02E02C
:10331000224B40F213321A60214B1B781F2B07D02F
:103320003A2B09D00A2B0BD14FF451721D4B06E0FA
:103330004FF451721C4B02E01C4B4FF451721A6057
:103340001B4BC0F344321A70C0F347125A70042169
:10335000022200F01F0098729970DA745975882162
:1033600019743C21D970134B402119706FF44771C7
:103370000B441A60704700BF34800440727CFF1F0A
:10338000097CFF1F787CFF1F737CFF1F087CFF1FD9
:103390002008FF1F0CB004403890044004D00440C3
:1033A0002108FF1F10B0044028A0044000D00440B2
:1033B00000B0064021E400E0194A937800F00301D0
:1033C00003F0EC030B43410748BF43F01003937035
:1033D00000F00F03042B124903D18B7943F0400313
:1033E0008B7152790E4B02F0EF02C10648BF42F0DA
:1033F00010025A719A7910F0200F02F0EF0219466C
:1034000018BF42F010028A71C205054B06D55A78E2
:103410001978D2B241F0200119705A70704700BF7C
:1034200000B0064008B51C4B1B681B0500D408BD46
:103430001A4B1A7802F0FF0312B100F0AFFEF7E763
:10344000174A02211160174AD370174A1278092AC5
:1034500004D03B2A06D1154A136003E0144B40F216
:1034600003121A60134B1B7803F07F030A2B04D05E
:103470003A2B06D10022104B02E0104B40F203120F
:103480001A600F4A002313700E4A13700E4B1B680C
:103490000BB101221A7008BD34800440087CFF1F64
:1034A00084E100E000B006402008FF1F04D0044083
:1034B0000CB004402108FF1F00D0044010B00440AD
:1034C000727CFF1F097CFF1F047CFF1F38B5044678
:1034D000094B1B7803F0FF05002BF9D12046012191
:1034E000FFF7F4FC20462946FFF7D0FC034B53F8C6
:1034F0003420034B1A6038BD087CFF1F2065000094
:10350000747CFF1F10B509B140F08000144A137895
:103510009842144622D0134A126812051DD503F0B2
:103520007F030A2B04D03A2B05D100220E4B01E079
:103530000E4B00221A60002900F07F020CBF4423CA
:1035400060230A2A05D03A2A07D143F44073064A79
:1035500002E0064A43F440731360207010BD00BFC0
:103560002108FF1F3480044000D0044010B0044004
:103570000F4A137898421AD00E490968090515D5E3
:10358000092B04D03B2B05D100210B4B01E00B4B49
:1035900000211960092805D03B2807D140F21331DA
:1035A000054B02E0054B40F2133119601070704773
:1035B0002008FF1F3480044004D004400CB00440B5
:1035C0000D4A38B5146814F400624FF0000410D0AE
:1035D0003F280A4D0AD80A4A012152F830302B60A0
:1035E000FFF774FC2B681C70012038BD2C6020464E
:1035F00038BD104638BD00BF34800440047CFF1F36
:10360000206500000E4B1B6813F4006316D01728CA
:103610000C4B03D140F202310B4A04E03C2809D1A3
:103620000A4A40F2023111605A7B42F001025A7399
:10363000012070475A7B02F0FE025A730020704747
:103640003480044000B0064008B0044008D0044074
:10365000F8B51D4B1B681A05064633D51B4B1B6876
:103660000BB101221A701A4B1C780134282C1F460A
:1036700028BF0024174D2B78A34218D1FEF76CF811
:1036800040280FDC144A13791B06F3D52B78134915
:103690000133282B28BF0023C95CDBB2C9B2D1712A
:1036A0002B70E7E7FF28E5DD00F078FDE2E70B4B44
:1036B000F6B21E550A4B01221A70074BE4B2BC2227
:1036C0003C70DA70F8BD00BF34800440747CFF1F8A
:1036D000787CFF1F737CFF1F00B006400A7CFF1F31
:1036E000087CFF1F274B1B681A052DE9F04707468A
:1036F0008A4644D5244B1B680BB101221A703D4603
:1037000007EB0A039D4237D2DFF890801F4E98F8EE
:10371000004096F800900134282C28BF00245FFA5E
:1037200089F9A1451DD11A4BBC22DA70FEF714F8B5
:1037300040280FDC164A13791B060FD5337815493C
:103740000133282B28BF0023C95CDBB2C9B2D17179
:10375000337003E0FF2801DD00F020FD33784B4596
:10376000E4D00C4B15F8012B1A550B4B0122E4B297
:103770001A7088F80040C3E7054BBC22DA70BDE838
:10378000F08700BF34800440747CFF1F737CFF1FF0
:1037900000B006400A7CFF1F087CFF1F787CFF1FDB
:1037A00008B5034B1B7813B100F0F8FCF9E708BD2E
:1037B000087CFF1F064A074B1B781078DBB2C0B2AB
:1037C00083422CBF273000F1FF30C01A704700BF82
:1037D000737CFF1F787CFF1F054B1878054B1B7807
:1037E000C0B2DBB2984238BF4030C01A704700BF49
:1037F000727CFF1F097CFF1F10B5104B10491A780F
:103800000B78D2B2DBB29A4214D00133402B28BFDE
:1038100000230C48DCB2C05C0C700B490968C0B2D4
:1038200051B19A4238BF4032D31A1A2B04DC00231C
:103830000B7010BD4FF0FF3010BD00BF727CFF1F3A
:10384000097CFF1F327CFF1F047CFF1F084B1A7886
:10385000084B1B78DBB29A4207D00133402B28BFBC
:103860000023054AD05CC0B270474FF0FF3070476C
:10387000727CFF1F097CFF1F327CFF1F0C4B1B68F3
:103880001B0514D50B4BDA7802F0CB02DA7040221C
:103890005A74DA7842F03402DA70074B1A78074B20
:1038A000D2B21A70064B1B680BB100221A70704717
:1038B0003480044000B00640097CFF1F727CFF1F6B
:1038C000047CFF1F30B5374B1A7912F0300F31D01E
:1038D00072B69A7D02F0FF0022B9DA7940225A745A
:1038E00062B627E062B6304A304913780978DBB215
:1038F000C9B214462B4AD5795A1C402A28BF002247
:103900008A42EDB202D02A4B9D541346421E12F059
:10391000FF00EFD1DAB22270264A126852B18B4210
:1039200036BFC1F14001C1EB03035B18272BC4BFB5
:10393000012313701B4BD978C9B20C0620D51B7913
:1039400018061DD51C4B1D4A1D781378EDB2DBB24D
:103950001046AB420CD0134A0133282B1479184C73
:1039600028BF0023E45CE4B2D471127D072AF0D9A9
:10397000DBB203700B4B1A79120644BF7C22DA705B
:103980004B060ED5074B1A7912F0400F194608D096
:103990000C4B00221A700C4B1B6803B11A703C23AD
:1039A000CB7030BD00B00640727CFF1F097CFF1F4A
:1039B000327CFF1F047CFF1F787CFF1F737CFF1F7E
:1039C0000A7CFF1F087CFF1F747CFF1F70B5064632
:1039D0000D4600243319284619790A2200230134A0
:1039E00000F0C4F9042C05D02B6828461B682E2152
:1039F0009847EFE7204670BD024B034A1A60002249
:103A00005A6070477C7CFF1F2867000008B5036878
:103A1000C9B21B68984708BD08B50368C9B21B68DE
:103A2000984708BD08B50368C9B21B68984708BD28
:103A300008B50368C9B21B68984708BD08B5036894
:103A4000C9B21B68984708BD08B50368C9B21B68AE
:103A5000984708BD08B50368C9B21B68984708BDF8
:103A600008B50368C9B21B68984708BD034800EB56
:103A70005100B0FBF1F0FEF737BB00BF002A75150F
:103A800010B5064800EB51001446B0FBF1F0FEF70C
:103A90002BFB2046BDE81040FEF79ABB002A7515A7
:103AA000FEF7CCBB0846FEF7FDBB0846FEF758BC48
:103AB00008461146FEF712BC08B50846FEF784FC1E
:103AC000003018BF012008BD08B50846FEF79EFC6F
:103AD000003018BF012008BDFEF782BDFEF7BABD59
:103AE000FEF78EBDFEF760BDFEF7CCBDFEF766BDEE
:103AF00008B50846FEF7B0FC012008BD08B5084629
:103B0000FEF7AAFC012008BD10B508461446114670
:103B1000FEF7ECFC204610BD38B508460D4602F015
:103B200001FB044621462846FEF7E0FC204638BD4E
:103B30000846FDF787B810B508461446FDF782F829
:103B40002046BDE81040FDF721B9FDF759B90846F8
:103B5000FDF78AB90846FDF7CBB908461146FDF7CF
:103B60009FB908B50846FDF7C5F9003018BF012018
:103B700008BD08B50846FDF7DFF9003018BF012081
:103B800008BDFDF769BAFDF7A1BAFDF775BAFDF7F3
:103B900047BAFDF7B3BAFDF74DBA08B50846FDF7C9
:103BA000E9F9012008BD08B50846FDF7E3F9012051
:103BB00008BD10B5084614461146FDF725FA204603
:103BC00010BD38B508460D4602F0ACFA0446214651
:103BD0002846FDF719FA204638BD7047044B0022ED
:103BE0001A714FF47A711A73024A99601A60704719
:103BF000847CFF1F3867000008B50368C9B21B68E2
:103C0000984708BD08B50368C9B21B68984708BD46
:103C100008B50368C9B21B68984708BD08B50368B2
:103C2000C9B21B68984708BD034800EB5100B0FBC0
:103C3000F1F0FCF7E1BC00BF000E270710B5064805
:103C400000EB51001446B0FBF1F0FCF7D5FC204628
:103C5000BDE81040FCF710BD000E2707FCF742BD81
:103C60000846FCF773BD0846FCF7B4BD084611468C
:103C7000FCF788BD08B50846FCF7AEFD003018BF5C
:103C8000012008BD08B50846FCF7C8FD003018BF84
:103C9000012008BDFCF752BEFCF78ABEFCF75EBEF1
:103CA000FCF730BEFCF79CBEFCF736BE08B50846F4
:103CB000FCF7D2FD012008BD08B50846FCF7CCFD95
:103CC000012008BD10B5084614461146FCF70EFE4B
:103CD000204610BD38B508460D4602F023FA0446CA
:103CE00021462846FCF702FE204638BD7047FFFFFC
:103CF000044B00221A714FF47A711A73024A9960C8
:103D00001A607047947CFF1F98670000FFF7B2B9F4
:103D1000FFF76EB9FFF792B9FFF748BAFFF7B8B9E6
:103D20000846FFF737BA08461146FFF7C9B970478A
:103D3000044B00221A714FF47A711A73024A996087
:103D40001A607047A47CFF1FF867000007B5064B98
:103D50001B88ADF80430036801A95B68022298470C
:103D600003B05DF804FB00BF1868000070B505469D
:103D70008AB022B90368C9B21B6898472CE0012AAF
:103D800008BF0A2221B930228DF82520212413E012
:103D90002124B1FBF2F002FB1011C9B209290AAECD
:103DA00094BF303137312644C9B206F8241C01468D
:103DB00010B1013CE4B2ECE733B1013CE4B20AAB30
:103DC00023442D2203F8242C2B6801A95B68284684
:103DD0002144C4F1220298470AB070BD08B50368B7
:103DE000C9B21B68984708BD08B50368C9B21B680B
:103DF000984708BD08B50368C9B21B68984708BD55
:103E000008B50368C9B21B68984708BD034800EBB2
:103E10005100B0FBF1F0FFF75BBA00BF002A751547
:103E200010B5064800EB51001446B0FBF1F0FFF767
:103E30004FFA2046BDE81040FFF7BEBA002A7515BC
:103E4000FFF7F0BA0846FFF741BB0846FFF790BB03
:103E500008461146FFF756BB08B50846FFF7B0FB0A
:103E6000003018BF012008BD08B50846FFF7CAFB9F
:103E7000003018BF012008BDFFF7AEBCFFF7E6BC5D
:103E8000FFF7BABCFFF78CBCFFF7F8BCFFF792BC9A
:103E900008B50846FFF7DCFB012008BD08B5084659
:103EA000FFF7D6FB012008BD10B5084614461146A1
:103EB000FFF718FC204610BD38B508460D4602F045
:103EC00031F9044621462846FFF70CFC204638BD50
:103ED0007047FFFF044B00221A714FF47A711A7376
:103EE000024A99601A607047B47CFF1F286800007E
:103EF0007047FFFF044B00221A714FF47A711A7356
:103F0000024A99601A607047C47CFF1F88680000ED
:103F100008B50368C9B21B68984708BD08B50368AF
:103F2000C9B21B68984708BD08B50368C9B21B68C9
:103F3000984708BD08B50368C9B21B68984708BD13
:103F4000034800EB5100B0FBF1F0FEF743BC00BFAB
:103F5000000E270710B5064800EB51001446B0FBD1
:103F6000F1F0FEF737FC2046BDE81040FEF792BCAA
:103F7000000E2707FEF7C4BC0846FEF719BD084629
:103F8000FEF768BD08461146FEF72EBD08B5084687
:103F9000FEF788FD003018BF012008BD08B50846AF
:103FA000FEF7A2FD003018BF012008BDFEF710BECD
:103FB000FEF748BEFEF71CBEFEF7EEBDFEF75ABE8A
:103FC000FEF7F4BD08B50846FEF790FD012008BDD8
:103FD00008B50846FEF78AFD012008BD10B5084661
:103FE00014461146FEF7CCFD204610BD38B50846F4
:103FF0000D4602F097F8044621462846FEF7C0FD1C
:10400000204638BD7047FFFF044B00221A714FF461
:104010007A711A73024A99601A607047D47CFF1F44
:10402000E868000008B5034B01221A60024B1B68C8
:10403000984708BD0C710340EC7CFF1F08B5034B8B
:1040400001221A60024B5B68984708BD1C7103404F
:10405000EC7CFF1F08B5034B01221A60024B9B68E2
:10406000984708BD2C710340EC7CFF1F08B5034B3B
:1040700001221A60024BDB68984708BD3C7103407F
:10408000EC7CFF1F064B01221A6003F588333C339A
:104090001A6822F400021A60024B00221A7070475C
:1040A00000700340E87CFF1F8268002310B5136096
:1040B000027B0121541102F01F0201FA02F20849A9
:1040C00041F82420074A41785354D15C31B9013377
:1040D000042BFAD1BDE81040FFF7D4BF10BD00BFDC
:1040E00080E100E0E47CFF1F037810B504460BB1CB
:1040F000FFF7DAFF0023237010BDFFFFF8B5164B62
:10410000164D1A6842F080721A60154B1A6842F018
:1041100001021A60134B2E681C688CB1237A6BB1B4
:1041200023682F681B68204698472A68E188D21BBD
:10413000120993B28A42A38088BFE3806469ECE7E6
:104140002968094B891B09098AB21A80074B18880C
:10415000814288BF1A80F8BDFCED00E0041000E049
:10416000001000E0FC7CFF1F027DFF1F007DFF1F91
:1041700010B50446FFF7B8FF204610BD04480549B6
:10418000054A002303708023437301F0F5BB00BF91
:10419000047DFF1F714100006007FF1F10B5154C23
:1041A000237833BB01232370FEF764FF08B1FFF7C8
:1041B000BEFDFEF715FA08B1FFF79AFEFFF70CFBFC
:1041C00008B1FFF785FEFCF7B9FB08B1FFF78EFDDC
:1041D000FEF7FEFC08B1FFF715FFFDF7B1F908B1D6
:1041E00000F084F8FCF738FF08B1FFF7F6FC002375
:1041F000237010BD187DFF1F08B50368C9B21B6886
:10420000984708BD08B50368C9B21B68984708BD40
:1042100008B50368C9B21B68984708BD08B50368AC
:10422000C9B21B68984708BD034800EB5100B0FBBA
:10423000F1F0FCF7E3BF00BF000E270710B50648FA
:1042400000EB51001446B0FBF1F0FCF7D7FF20461D
:10425000BDE81040FDF712B8000E2707FDF744B87F
:104260000846FDF775B80846FDF7B6B8084611468A
:10427000FDF78AB808B50846FDF7B0F8003018BF5A
:10428000012008BD08B50846FDF7CAF8003018BF80
:10429000012008BDFDF754B9FDF78CB9FDF760B9F1
:1042A000FDF732B9FDF79EB9FDF738B908B50846F4
:1042B000FDF7D4F8012008BD08B50846FDF7CEF893
:1042C000012008BD10B5084614461146FDF710F947
:1042D000204610BD38B508460D4601F023FF0446C0
:1042E00021462846FDF704F9204638BD7047FFFFF8
:1042F000044B00221A714FF47A711A73024A9960C2
:104300001A6070471C7DFF1F4869000010B5044605
:1043100001F0E6F9A46B01F005FAD4F1010038BF11
:10432000002010BD70B51646026C856B04463AB984
:104330000668104656BBA06800F04AFFA66025E05C
:1043400066B9406801F0F4FD6268236C1344A2680A
:104350006360934215D32368636012E0C06801F084
:10436000E7FD236CE26821685B421A448A42E260FE
:1043700002D2A2681344E360022E04D12DB1013DA4
:1043800001E0304602E0002000E028460135A56348
:1043900070BD026C30B503466AB1C46885681444C8
:1043A000AC42C46024BF0468C460BDE83040084625
:1043B000D96801F0BDBD30BD73B5846C01900A466B
:1043C00044B94FF0500383F31188BFF36F8FBFF3ED
:1043D0004F8FFEE7A16BE36B994208D34FF0500378
:1043E00083F31188BFF36F8FBFF34F8FFEE7A16B8D
:1043F000994219D294F84560204601A9FFF792FF2F
:10440000F6B273B20133054609D1636A6BB104F1A8
:10441000240000F03DFE002818BF012505E001360C
:10442000F6B284F8456000E00025284602B070BD71
:1044300038B5044601F054F994F84550EDB26BB22A
:10444000002B12DDA36C3BB120460021FFF7B4FF27
:1044500048B100F0A7FE06E0636A33B104F124001E
:1044600000F016FEF4E7013DE8E7FF2384F845304D
:1044700001F058F901F034F994F84450EDB26BB200
:10448000002B0ADD236943B104F1100000F000FEA7
:1044900008B100F087FE013DF0E7FF2384F84430C7
:1044A000BDE8384001F03EB938B50D46044640B984
:1044B0004FF0500383F31188BFF36F8FBFF34F8F1B
:1044C000FEE701F00DF9226CE06B23686360504356
:1044D000821A19181344A160E3600021FF23A1632D
:1044E00084F8443084F845307DB92369ABB104F1D8
:1044F000100000F0CDFD80B10A4B4FF080521A60E1
:10450000BFF34F8FBFF36F8F07E004F1100000F08F
:104510002EFA04F1240000F02AFA01F003F9012038
:1045200038BD00BF04ED00E070B50D46064640B949
:104530004FF0500383F31188BFF36F8FBFF34F8F9A
:10454000FEE709B1484300E008464C30FCF7FEFAAC
:10455000044668B10DB9206002E000F14C0303602D
:10456000E663256420460121FFF79EFF0023A36434
:10457000204670BD2DE9FF410E4601921D460446BE
:1045800040B94FF0500383F31188BFF36F8FBFF32F
:104590004F8FFEE751B9036C43B14FF0500383F3E3
:1045A0001188BFF36F8FBFF34F8FFEE7022D0BD142
:1045B000E36B012B08D04FF0500383F31188BFF356
:1045C0006F8FBFF34F8FFEE700F0F2FD18B9019B2C
:1045D000002B40F08180002701F082F8A26BE36B92
:1045E0009A4201D3022D22D1204631462A46A76B9A
:1045F000FFF798FEA36C3BB1022D00D19FB9204676
:104600002946FFF7D9FE05E0636A1BB104F12400D7
:1046100000F03EFD38B1364B4FF080521A60BFF3C8
:104620004F8FBFF36F8F01F07DF801205DE0DDF863
:104630000480B8F1000F02D101F074F84AE017B914
:1046400002A800F065FD01F06DF800F069FB01F0D3
:1046500047F894F844305BB2013304BF002384F878
:10466000443094F845305BB2013304BF002384F832
:10467000453001F057F802A801A900F055FD20BB14
:1046800001F02EF8D4F83880E76B01F04BF8B8450C
:1046900015D104F11000019900F0C2FC2046FFF78B
:1046A000C7FE00F0D5FB08B1012795E7104B4FF08E
:1046B00080521A60BFF34F8FBFF36F8FF4E720462D
:1046C000FFF7B6FE00F0C4FBEEE72046FFF7B0FEB2
:1046D00000F0BEFB002008E04FF0500383F3118888
:1046E000BFF36F8FBFF34F8FFEE704B0BDE8F081DB
:1046F00004ED00E02DE9F8430F4615461E4604463A
:1047000040B94FF0500383F31188BFF36F8FBFF3AD
:104710004F8FFEE751B9036C43B14FF0500383F361
:104720001188BFF36F8FBFF34F8FFEE7022E0BD1BF
:10473000E36B012B08D04FF0500383F31188BFF3D4
:104740006F8FBFF34F8FFEE701F0E8F8EFF31189A9
:104750004FF0500383F31188BFF36F8FBFF34F8F78
:10476000A26BE36B9A4201D3022E26D194F84580C6
:1047700020465FFA88F839463246FFF7D3FD4FFAF4
:1047800088F3013311D1A36C23B120463146FFF7E2
:1047900013FE05E0636A73B104F1240000F078FCB5
:1047A00048B145B10120286008E008F101085FFA2E
:1047B00088F884F84580012000E0002089F3118802
:1047C000BDE8F883F0B585B00D460192044640B9C6
:1047D0004FF0500383F31188BFF36F8FBFF34F8FF8
:1047E000FEE751B9036C43B14FF0500383F31188D6
:1047F000BFF36F8FBFF34F8FFEE700F0D9FC10B906
:10480000019B002B6FD1002700F06AFFA66BC6B199
:1048100020462946013EFFF7BCFDA663236963B12C
:1048200004F1100000F034FC38B1344B4FF08052EA
:104830001A60BFF34F8FBFF36F8F00F073FF01203B
:104840005AE0019E16B900F06DFF4AE017B902A8C0
:1048500000F05EFC00F066FF00F062FA00F040FF3E
:1048600094F844305BB2013304BF002384F8443031
:1048700094F845305BB2013304BF002384F845301F
:1048800000F050FF02A801A900F04EFCF8B9204644
:10489000FFF73CFDA8B104F12400019900F0C0FB32
:1048A0002046FFF7C5FD00F0D3FA08B10127ABE7BA
:1048B000124B4FF080521A60BFF34F8FBFF36F8FD0
:1048C000F4E72046FFF7B4FD00F0C2FAEEE7204619
:1048D000FFF7AEFD00F0BCFA2046FFF717FD0028F9
:1048E000E4D0002008E04FF0500383F31188BFF3B9
:1048F0006F8FBFF34F8FFEE705B0F0BD04ED00E012
:1049000030B50023064A52F8334002EBC3051CB908
:1049100042F83310686030BD0133082BF2D130BD4E
:10492000BC7EFF1F70B504460E46154600F0D8FE4B
:1049300094F844305BB2013304BF002384F8443060
:1049400094F845305BB2013304BF002384F845304E
:1049500000F0E8FEA36B2BB904F1240031462A468F
:1049600000F078FB2046BDE87040FFF761BD00F124
:10497000080343604FF0FF32C3600361002382608D
:104980000360704700230361704743684B609A6877
:104990008A609A6851609960036808610133036016
:1049A000704730B50C68631C01D1036907E000F162
:1049B00008035A681568A54201D81346F9E75A68F2
:1049C0004A6091608B60596003680861013303603D
:1049D00030BD4168826803698A60826851605968A5
:1049E000814208BF5A60002202611A68013A1A60C7
:1049F00018687047064A13681968064B11B94FF0DA
:104A0000FF3203E01268D268D26852681A607047B9
:104A1000307DFF1FEC7DFF1FF8B5174B174D1E684B
:104A20000446286804300F46FFF7D3FF631C2A466C
:104A300007D137B1296812480431BDE8F840FFF7C3
:104A4000A4BF344412680D4B5460B44207D20D4ADF
:104A500010681968BDE8F8400431FFF7A2BF0A4AA0
:104A6000106819680431FFF79CFF084B1A689442DC
:104A700038BF1C60F8BD00BFE87DFF1FBC7DFF1F75
:104A8000147EFF1F4C7DFF1F307DFF1FEC7DFF1F3D
:104A900008B5144D2B68BBB100F022FE124BDB6849
:104AA000DC68201DFFF795FF104B1A68013A1A6069
:104AB0002B68013B2B6000F035FE206BFCF7A2F861
:104AC0002046FCF79FF8E4E7094B1B68012BE0D96F
:104AD000084B4FF080521A60BFF34F8FBFF36F8FB8
:104AE000D7E700BF0C7EFF1F387DFF1F087EFF1F2A
:104AF000547DFF1F04ED00E02DE9F84F970082463A
:104B000038460E469946DDF82C80FCF71FF805461E
:104B1000002800F0A5805020FCF718F8044668B182
:104B200005633A462846A52101F09CFA236B043F11
:104B30001F4427F007079EB1002506E02846FCF732
:104B400061F88DE001350A2D06D06319725D83F896
:104B50003420735D002BF5D1002384F83D3001E053
:104B600084F834600A9E0025042E28BF042604F130
:104B7000040BE662266458466564FFF703FFC6F13E
:104B8000050604F11800FFF7FDFEA5642461A66187
:104B9000646284F84C50384651464A4600F06CFD39
:104BA0002060B8F1000F01D0C8F8004000F098FD77
:104BB0002D4B2E4D1A682E4F01321A602E680EBBF7
:104BC0002C601B68012B26D1B8191436FFF7CFFED5
:104BD000642EF9D1DFF8C480264E4046FFF7C7FEA9
:104BE0003046FFF7C4FE2448FFF7C1FE2348FFF715
:104BF000BEFE2348FFF7BBFE224BC3F80080224BCA
:104C00001E6008E0214B1B682BB92B68DA6AE36A47
:104C10009A4298BF2C601E4B1A6801321A601D4AD6
:104C2000E36A116814208B4200FB0370594688BF69
:104C30001360FFF7AAFE00F075FD144B1B6863B10B
:104C40002B68DA6AE36A9A4207D2134B4FF080521C
:104C50001A60BFF34F8FBFF36F8F0120BDE8F88F4D
:104C60004FF0FF30BDE8F88F087EFF1FBC7DFF1FAF
:104C7000547DFF1FF07DFF1FC07DFF1F387DFF1F8C
:104C8000147EFF1F307DFF1F4C7DFF1F347DFF1FF3
:104C9000047EFF1F287EFF1F04ED00E0D47DFF1F70
:104CA00013B5194B01930024009418481849782231
:104CB0002346FFF721FF012818D100F015FB01283A
:104CC00014D14FF0500383F31188BFF36F8FBFF3FC
:104CD0004F8F104B4FF0FF321A600F4B18600F4B85
:104CE0001C6002B0BDE8104000F094BD013008D156
:104CF0004FF0500383F31188BFF36F8FBFF34F8FD3
:104D0000FEE702B010BD00BF107EFF1F914A0000F9
:104D1000A0690000EC7DFF1F347DFF1FE87DFF1FB1
:104D2000024B1A6801321A60704700BFB87DFF1F3E
:104D3000014B1868704700BFE87DFF1F394B1B68A7
:104D40002DE9F047002B5FD1374B1E6801361E60FE
:104D5000BEB9364B1A68126842B14FF0500383F364
:104D60001188BFF36F8FBFF34F8FFEE7304A19688A
:104D7000106818602F4B11601A6801321A60FFF733
:104D800039FE2D4B2D4F1A68DFF8C08096424FF048
:104D900000049A462ED3254B1A68126812B94FF0B8
:104DA000FF3305E01B68DB68DD686B689E4202D25A
:104DB000CAF800301EE005F104094846FFF709FE75
:104DC000AB6A1BB105F11800FFF703FE1C4AEB6A42
:104DD000116814208B4200FB0370494688BF1360A2
:104DE000FFF7D3FDD8F80030EA6ADB6A9A4228BFA1
:104DF0000124D0E7D8F80030DB6A14225343FB5873
:104E0000022B28BF012404E00E4B1A6801321A60FD
:104E100000240D4B1B68002B0CBF20460120BDE871
:104E2000F08700BFB87DFF1FE87DFF1F307DFF1FAB
:104E30004C7DFF1F2C7DFF1FEC7DFF1F547DFF1F4E
:104E4000287EFF1F507DFF1F2C7EFF1FBC7DFF1F94
:104E500038B52F4C236843B94FF0500383F31188C2
:104E6000BFF36F8FBFF34F8FFEE700F039FC23686D
:104E7000013B236024680CB1002444E0254B1B68EF
:104E8000002BF9D0244B1A6802B3DB68DC68251DBF
:104E900004F11800FFF79DFD2846FFF79AFD1F4A11
:104EA000E36A11688B4288BF13601D4A142000FB1F
:104EB00003202946FFF769FD1A4B1A68E36AD26A94
:104EC0009342DFD3184B01221A60DBE70CB1FFF7E6
:104ED00091FD164B1C681D4644B1FFF72FFF10B122
:104EE000114B01221A60013CF7D12C600E4B1B685C
:104EF000002BC1D00E4B4FF080521A60BFF34F8F82
:104F0000BFF36F8F012400F00DFC204638BD00BFB9
:104F1000B87DFF1F087EFF1FC07DFF1F287EFF1F7B
:104F2000547DFF1FBC7DFF1F2C7EFF1F507DFF1F88
:104F300004ED00E038B5054640B9104B4FF0805203
:104F40001A60BFF34F8FBFF36F8F38BD0C4B1C68D7
:104F500044B14FF0500383F31188BFF36F8FBFF359
:104F60004F8FFEE7FFF7DCFE28462146FFF754FD92
:104F7000FFF76EFF0028E0D038BD00BF04ED00E071
:104F8000B87DFF1F38B5214B1A68214B12B10122A1
:104F90001A6038BD1F4C1A6023681B6B1A68B2F187
:104FA000A53F0BD15A68B2F1A53F07D19A68B2F17B
:104FB000A53F03D1DB68B3F1A53F04D02068216889
:104FC0003431FCF7AEFB144A13681546142113481C
:104FD00059434218415859B943B94FF0500383F32C
:104FE0001188BFF36F8FBFF34F8FFEE7013BEDE7F3
:104FF00051684968516002F10800814204BF496864
:1050000051605268D26822602B6038BDB87DFF1FA6
:105010002C7EFF1FBC7DFF1F287EFF1F547DFF1FBE
:1050200010B50C4640B94FF0500383F31188BFF31D
:105030006F8FBFF34F8FFEE7054B19681831FFF7ED
:10504000B0FC20460121BDE81040FFF7E5BC00BFE1
:10505000BC7DFF1F38B50D46144640B94FF05003D4
:1050600083F31188BFF36F8FBFF34F8FFEE7074BBA
:1050700019681831FFF789FC002C0CBF28464FF047
:10508000FF302146BDE83840FFF7C6BCBC7DFF1F9E
:1050900038B5C368DC6844B94FF0500383F3118816
:1050A000BFF36F8FBFF34F8FFEE704F1180528465B
:1050B000FFF78FFC104B1B6873B9251D2846FFF7BF
:1050C00088FC0E4AE36A11688B4288BF13600C4A61
:1050D000142000FB032000E00A482946FFF755FC96
:1050E000094BE26A1B68DB6A9A4283BF074B0120C7
:1050F0001860002038BD00BFB87DFF1F287EFF1F4D
:10510000547DFF1FC07DFF1FBC7DFF1F2C7EFF1F36
:10511000034B1B680360034B1B684360704700BF71
:105120002C7DFF1FE87DFF1F70B50C46054640B97A
:105130004FF0500383F31188BFF36F8FBFF34F8F8E
:10514000FEE741B94FF0500383F31188BFF36F8F2F
:10515000BFF34F8FFEE700F0C3FA104B6A6819687F
:105160002368581C12D00E4806682868864201D071
:1051700091420DD28A1A9A4205D29B1A2360284680
:10518000FFF7C6FF02E00023236001E0002400E0F7
:10519000012400F0C7FA204670BD00BFE87DFF1F64
:1051A0002C7DFF1F014B01221A6070472C7EFF1FD0
:1051B000054B1B6833B1054B1B68002B14BF002047
:1051C0000220704701207047347DFF1FB87DFF1F0C
:1051D00038B5044608B9002038BD1B4B1B689842FF
:1051E00008D04FF0500383F31188BFF36F8FBFF3E4
:1051F0004F8FFEE7436C43B94FF0500383F31188A0
:10520000BFF36F8FBFF34F8FFEE7C16A026C013BA4
:1052100091424364DFD0002BDDD1051D2846FFF706
:10522000D8FB236CE362C3F10502A261074A11684F
:105230008B4288BF1360064A142000FB03202946D6
:10524000FFF7A3FB012038BDBC7DFF1F287EFF1F99
:10525000547DFF1FF8B50F4C00F042FA2568ADB938
:105260000D4F0E4E3846FFF782FB3046FFF77FFBAF
:105270000B4B1F600B4B0A2010212A461E60FFF7C4
:1052800053F9206010B10849FFF73AFBBDE8F84038
:1052900000F048BA5C7EFF1F347EFF1F487EFF1F70
:1052A000307EFF1F647EFF1FA569000010B5044615
:1052B00091424160206105D88169D21A8A420CD29C
:1052C000074B04E09A4201D2994206D2054B186876
:1052D000211DFFF766FB002010BD012010BD00BF9F
:1052E000647EFF1F307EFF1F07B5FFF7B3FF0E4B35
:1052F0001B6843B94FF0500383F31188BFF36F8FDE
:10530000BFF34F8F0EE002230093084B0193084830
:105310000849F0220023FFF7EFFB0028EAD003B092
:105320005DF804FBFEE700BF5C7EFF1F687EFF1F89
:1053300005540000AA69000030B5054685B040B9A3
:105340004FF0500383F31188BFF36F8FBFF34F8F7C
:10535000FEE70E4C2068B8B105298DE826000EDC6A
:10536000FFF726FF022818BF0022206808BF089A0E
:1053700069460CBF00231346FFF7FCF804E01A4609
:1053800069460023FFF7B6F905B030BD5C7EFF1F0C
:10539000F7B51A4E33681A6852B3DB68DC681D68CB
:1053A000271D3846FFF715FB236A2046984794F8D7
:1053B00024305B07EDD5A3692B44AB4206D963606B
:1053C000246130683946FFF7ECFAE2E700210091EA
:1053D00020462A460B46FFF7AFFF0028D9D14FF0F1
:1053E000500383F31188BFF36F8FBFF34F8FFEE736
:1053F000034A11683160136003B0F0BD307EFF1FB7
:10540000647EFF1F2DE9F04387B0DFF8EC91D9F8F7
:1054100000301E68002E40F0E2800125724CFFF73C
:105420007FFCFFF785FC236898420746A04603D21D
:10543000FFF7AEFF012300E000232760002B4AD1D5
:10544000002D2FD1BE4234D8FFF702FDD9F800302D
:10545000DB68DC68201DFFF7BCFA94F8243058079D
:1054600018D5A169204631443A463346FFF71EFF5E
:10547000A0B100952046294632462B46FFF75CFF37
:1054800060B94FF0500383F31188BFF36F8FBFF300
:105490004F8FFEE723F0010384F82430236A20466F
:1054A000984725E0514B1B681D68D5F1010538BFB1
:1054B00000254F4BF11B18682A46FFF733FAFFF718
:1054C000C7FCA8B94B4B4FF080521A60BFF34F8F07
:1054D000BFF36F8F0CE0FFF7BBFC09E0029B002BD2
:1054E00003DA04980599039B9847029B002B08DA7E
:1054F0003F4B02A918680022FFF764F90028EDD19C
:1055000083E7049C636913B1201DFFF762FAFFF77C
:105510000FFCD8F800309842054601D2FFF738FF5B
:10552000029BC8F80050092BE2D8DFE803F005051C
:10553000052F324B05052F3294F82430A16943F032
:10554000010384F82430039B204619442A46FFF7C0
:10555000ADFE0028CCD0236A2046984794F824302A
:105560005907C5D5A269039B00211A440091204622
:105570000B46FFF7E1FE0028BAD14FF0500383F34A
:105580001188BFF36F8FBFF34F8FFEE794F824307D
:1055900020E094F824300399A16143F0010384F8DA
:1055A000243041B94FF0500383F31188BFF36F8F5C
:1055B000BFF34F8FFEE7204629442A462B46FFF7CC
:1055C00075FE95E794F824309A0703D42046FBF73C
:1055D00019FB8DE723F0010384F8243088E7DB68AA
:1055E00000251E681AE700BF607EFF1F647EFF1F54
:1055F0005C7EFF1F04ED00E0307EFF1F82B00023C1
:1056000001930D4B1B68013308D04FF0500383F317
:105610001188BFF36F8FBFF34F8FFEE74FF050033A
:1056200083F31188BFF36F8FBFF34F8F019B002B64
:10563000FCD002B0704700BF2408FF1F0848006874
:10564000006880F308884FF0000080F3148862B689
:1056500061B6BFF34F8FBFF36F8F00DF00BF000055
:1056600008ED00E0DFF80C00016841F47001016012
:105670007047000088ED00E04FF0807340F8043C74
:10568000074B40F80C3C21F001016FF0020340F899
:10569000081C40F8202C40F8243C4438704700BFD8
:1056A000FD550000FFFFFFFFFFFFFFFFFFFFFFFFB4
:1056B000074B19680868B0E8F04F80F30988BFF31A
:1056C0006F8F4FF0000080F311887047AFF30080B8
:1056D000BC7DFF1FAFF30080AFF30080AFF300800D
:1056E0004FF0500383F31188BFF36F8FBFF34F8FD9
:1056F0000A4A13680133012B13600DD1084B1B6854
:1057000013F0FF0F08D04FF0500383F31188BFF35D
:105710006F8FBFF34F8FFEE7704700BF2408FF1F56
:1057200004ED00E0084A136843B94FF0500383F3D7
:105730001188BFF36F8FBFF34F8FFEE7013B1360FC
:105740000BB983F3118870472408FF1FFFFFFFFF89
:10575000EFF30980BFF36F8F154B1A681EF0100F1F
:1057600008BF20ED108A20E9F04F10602DE90900F4
:105770004FF0500080F31188BFF34F8FBFF36F8F4E
:10578000FFF700FC4FF0000080F3118809BC196896
:105790000868B0E8F04F1EF0100F08BFB0EC108A98
:1057A00080F30988BFF36F8F704700BFAFF30080AD
:1057B000BC7DFF1FAFF30080AFF30080AFF300802C
:1057C00008B54FF0500383F31188BFF36F8FBFF319
:1057D0004F8FFFF7B3FA18B1034B4FF080521A60A6
:1057E000002383F3118808BD04ED00E0054B064952
:1057F00000221A600A60054A0549116007221A60F2
:10580000704700BF10E000E018E000E014E000E0A6
:105810001FBF0200394B3A4A13B51968914208D1AB
:105820004FF0500383F31188BFF36F8FBFF34F8F97
:10583000FEE71A68334B9A4208D14FF0500383F3C6
:105840001188BFF36F8FBFF34F8FFEE72E4B1A788F
:10585000D2B20192FF221A701B78DBB28DF80330AE
:105860009DF80320294B02F050021A70284A0723A2
:1058700013609DF80310090603F1FF3007D59DF86A
:1058800003305B00DBB28DF803300346F1E7032BF6
:10589000136008D04FF0500383F31188BFF36F8F6C
:1058A000BFF34F8FFEE71A4A1B0203F4E063136055
:1058B000019A154BD2B21A70D3F8202942F4700223
:1058C000C3F82029D3F8202942F07042C3F82029D8
:1058D000FFF78CFF0F4B00241C60FFF7C3FE0E4B3D
:1058E0001A6842F040421A60FFF7A8FEFFF74AFB31
:1058F000FFF784FE204602B010BD00BF00ED00E0BF
:1059000071C20F4170C20F4100E400E06C7EFF1FC6
:10591000707EFF1F2408FF1F34EF00E0EFF30583C4
:105920000F2B0ED9104A9B5C104A12789A4208D964
:105930004FF0500383F31188BFF36F8FBFF34F8F86
:10594000FEE70B4B1A680B4B1B6802F4E0629A42AD
:1059500008D94FF0500383F31188BFF36F8FBFF363
:105960004F8FFEE7704700BFF0E300E06C7EFF1F43
:105970000CED00E0707EFF1F03460846194600F05C
:1059800001B800BF10B40C4613460146224602205F
:105990005DF8044B00F0F6BB70B50F4E0F4D761B53
:1059A000B61007D0043D0024013455F8043F984751
:1059B000A642F9D10A4E0B4D761B00F0FFFFB61040
:1059C00008D0043D0024013455F8043F9847A6420E
:1059D000F9D170BD70BD00BFC8690000C869000082
:1059E000F4690000C8690000024B0146186800F025
:1059F00003B800BF500CFF1F2DE9F04F01F10B055C
:105A0000162D83B0064627D935F0070527D4A942BD
:105A100025D8304600F070FBB5F5FC7F26D2C14F8B
:105A20004FEAD50C07EBCC03DC689C4200F0D28136
:105A30006368E268A16823F00303234430465D688D
:105A4000CA6045F0010591605D6000F057FB0834C5
:105A5000204603B0BDE8F08F1025A942D9D9002413
:105A60000C232046336003B0BDE8F08F5FEA552C6D
:105A700000F08A80BCF1040F00F260814FEA951CAF
:105A80000CF1380C4FEA4C01A64F07EB8101CC68B2
:105A9000A14205D10CE0002B7ADAE468A14207D0DC
:105AA000626822F00302531B0F2BF4DD0CF1FF3C64
:105AB0000CF1010C9B4B3C6903F1080E744500F09E
:105AC0007E81616821F003014A1B0F2A00F3648183
:105AD000002AC3F814E0C3F810E06ADAB1F5007FD9
